{
  "_format": "hh-sol-artifact-1",
  "contractName": "MembershipMarket",
  "sourceName": "contracts/MembershipMarket.sol",
  "abi": [
    {
      "inputs": [
        {
          "internalType": "contract AggregatorV3Interface",
          "name": "_priceFeed",
          "type": "address"
        },
        {
          "internalType": "address",
          "name": "oracle",
          "type": "address"
        }
      ],
      "stateMutability": "nonpayable",
      "type": "constructor"
    },
    {
      "inputs": [],
      "name": "EmptyArgs",
      "type": "error"
    },
    {
      "inputs": [],
      "name": "EmptySecrets",
      "type": "error"
    },
    {
      "inputs": [],
      "name": "EmptySource",
      "type": "error"
    },
    {
      "inputs": [],
      "name": "NoInlineSecrets",
      "type": "error"
    },
    {
      "inputs": [],
      "name": "RequestIsAlreadyPending",
      "type": "error"
    },
    {
      "inputs": [],
      "name": "RequestIsNotPending",
      "type": "error"
    },
    {
      "inputs": [],
      "name": "SenderIsNotRegistry",
      "type": "error"
    },
    {
      "anonymous": false,
      "inputs": [
        {
          "indexed": true,
          "internalType": "bytes32",
          "name": "requestId",
          "type": "bytes32"
        },
        {
          "indexed": false,
          "internalType": "bytes",
          "name": "result",
          "type": "bytes"
        },
        {
          "indexed": false,
          "internalType": "bytes",
          "name": "err",
          "type": "bytes"
        }
      ],
      "name": "OCRResponse",
      "type": "event"
    },
    {
      "anonymous": false,
      "inputs": [
        {
          "indexed": true,
          "internalType": "address",
          "name": "from",
          "type": "address"
        },
        {
          "indexed": true,
          "internalType": "address",
          "name": "to",
          "type": "address"
        }
      ],
      "name": "OwnershipTransferRequested",
      "type": "event"
    },
    {
      "anonymous": false,
      "inputs": [
        {
          "indexed": true,
          "internalType": "address",
          "name": "from",
          "type": "address"
        },
        {
          "indexed": true,
          "internalType": "address",
          "name": "to",
          "type": "address"
        }
      ],
      "name": "OwnershipTransferred",
      "type": "event"
    },
    {
      "anonymous": false,
      "inputs": [
        {
          "indexed": true,
          "internalType": "bytes32",
          "name": "id",
          "type": "bytes32"
        }
      ],
      "name": "RequestFulfilled",
      "type": "event"
    },
    {
      "anonymous": false,
      "inputs": [
        {
          "indexed": true,
          "internalType": "bytes32",
          "name": "id",
          "type": "bytes32"
        }
      ],
      "name": "RequestSent",
      "type": "event"
    },
    {
      "anonymous": false,
      "inputs": [
        {
          "indexed": true,
          "internalType": "uint256",
          "name": "tokenId",
          "type": "uint256"
        },
        {
          "indexed": false,
          "internalType": "address",
          "name": "owner",
          "type": "address"
        },
        {
          "indexed": false,
          "internalType": "address",
          "name": "seller",
          "type": "address"
        },
        {
          "indexed": false,
          "internalType": "uint256",
          "name": "price",
          "type": "uint256"
        },
        {
          "indexed": false,
          "internalType": "bool",
          "name": "currentlyListed",
          "type": "bool"
        }
      ],
      "name": "TokenListedSuccess",
      "type": "event"
    },
    {
      "inputs": [
        {
          "internalType": "address",
          "name": "_nft",
          "type": "address"
        },
        {
          "internalType": "address",
          "name": "seller",
          "type": "address"
        },
        {
          "internalType": "uint256",
          "name": "tokenId",
          "type": "uint256"
        },
        {
          "internalType": "uint256",
          "name": "_price",
          "type": "uint256"
        },
        {
          "internalType": "bool",
          "name": "reSale",
          "type": "bool"
        }
      ],
      "name": "SaleNft",
      "outputs": [],
      "stateMutability": "nonpayable",
      "type": "function"
    },
    {
      "inputs": [
        {
          "internalType": "address",
          "name": "_provider",
          "type": "address"
        }
      ],
      "name": "WhiteListProvider",
      "outputs": [],
      "stateMutability": "nonpayable",
      "type": "function"
    },
    {
      "inputs": [],
      "name": "acceptOwnership",
      "outputs": [],
      "stateMutability": "nonpayable",
      "type": "function"
    },
    {
      "inputs": [
        {
          "internalType": "address",
          "name": "oracleAddress",
          "type": "address"
        },
        {
          "internalType": "bytes32",
          "name": "requestId",
          "type": "bytes32"
        }
      ],
      "name": "addSimulatedRequestId",
      "outputs": [],
      "stateMutability": "nonpayable",
      "type": "function"
    },
    {
      "inputs": [
        {
          "internalType": "address",
          "name": "to",
          "type": "address"
        },
        {
          "internalType": "address",
          "name": "_nft",
          "type": "address"
        },
        {
          "internalType": "string",
          "name": "tokenUri",
          "type": "string"
        }
      ],
      "name": "buyNftWithNative",
      "outputs": [],
      "stateMutability": "payable",
      "type": "function"
    },
    {
      "inputs": [
        {
          "internalType": "string",
          "name": "name",
          "type": "string"
        },
        {
          "internalType": "string",
          "name": "symbol",
          "type": "string"
        },
        {
          "internalType": "uint256",
          "name": "_supplyLimit",
          "type": "uint256"
        },
        {
          "internalType": "uint256",
          "name": "priceOfNft",
          "type": "uint256"
        },
        {
          "internalType": "bool",
          "name": "_isTransferable",
          "type": "bool"
        },
        {
          "internalType": "bool",
          "name": "_isExpireable",
          "type": "bool"
        },
        {
          "internalType": "uint256",
          "name": "expiration",
          "type": "uint256"
        },
        {
          "internalType": "enum MembershipMarket.nftCategory",
          "name": "_category",
          "type": "uint8"
        }
      ],
      "name": "createNFT",
      "outputs": [
        {
          "internalType": "address",
          "name": "",
          "type": "address"
        }
      ],
      "stateMutability": "nonpayable",
      "type": "function"
    },
    {
      "inputs": [
        {
          "components": [
            {
              "internalType": "enum Functions.Location",
              "name": "codeLocation",
              "type": "uint8"
            },
            {
              "internalType": "enum Functions.Location",
              "name": "secretsLocation",
              "type": "uint8"
            },
            {
              "internalType": "enum Functions.CodeLanguage",
              "name": "language",
              "type": "uint8"
            },
            {
              "internalType": "string",
              "name": "source",
              "type": "string"
            },
            {
              "internalType": "bytes",
              "name": "secrets",
              "type": "bytes"
            },
            {
              "internalType": "string[]",
              "name": "args",
              "type": "string[]"
            }
          ],
          "internalType": "struct Functions.Request",
          "name": "req",
          "type": "tuple"
        },
        {
          "internalType": "uint64",
          "name": "subscriptionId",
          "type": "uint64"
        },
        {
          "internalType": "uint32",
          "name": "gasLimit",
          "type": "uint32"
        },
        {
          "internalType": "uint256",
          "name": "gasPrice",
          "type": "uint256"
        }
      ],
      "name": "estimateCost",
      "outputs": [
        {
          "internalType": "uint96",
          "name": "",
          "type": "uint96"
        }
      ],
      "stateMutability": "view",
      "type": "function"
    },
    {
      "inputs": [
        {
          "internalType": "address",
          "name": "_nft",
          "type": "address"
        },
        {
          "internalType": "address",
          "name": "to",
          "type": "address"
        },
        {
          "internalType": "uint256",
          "name": "tokenId",
          "type": "uint256"
        }
      ],
      "name": "excecuteSale",
      "outputs": [],
      "stateMutability": "payable",
      "type": "function"
    },
    {
      "inputs": [],
      "name": "getDONPublicKey",
      "outputs": [
        {
          "internalType": "bytes",
          "name": "",
          "type": "bytes"
        }
      ],
      "stateMutability": "view",
      "type": "function"
    },
    {
      "inputs": [
        {
          "internalType": "uint256",
          "name": "matic",
          "type": "uint256"
        }
      ],
      "name": "getMatictoUSD",
      "outputs": [
        {
          "internalType": "uint256",
          "name": "",
          "type": "uint256"
        }
      ],
      "stateMutability": "view",
      "type": "function"
    },
    {
      "inputs": [
        {
          "internalType": "address",
          "name": "_nft",
          "type": "address"
        }
      ],
      "name": "getNFTCategory",
      "outputs": [
        {
          "internalType": "enum MembershipMarket.nftCategory",
          "name": "",
          "type": "uint8"
        }
      ],
      "stateMutability": "nonpayable",
      "type": "function"
    },
    {
      "inputs": [
        {
          "internalType": "address",
          "name": "_provider",
          "type": "address"
        }
      ],
      "name": "getNftAddress",
      "outputs": [
        {
          "internalType": "address",
          "name": "",
          "type": "address"
        }
      ],
      "stateMutability": "view",
      "type": "function"
    },
    {
      "inputs": [
        {
          "internalType": "bytes32",
          "name": "requestId",
          "type": "bytes32"
        },
        {
          "internalType": "bytes",
          "name": "response",
          "type": "bytes"
        },
        {
          "internalType": "bytes",
          "name": "err",
          "type": "bytes"
        }
      ],
      "name": "handleOracleFulfillment",
      "outputs": [],
      "stateMutability": "nonpayable",
      "type": "function"
    },
    {
      "inputs": [],
      "name": "latestError",
      "outputs": [
        {
          "internalType": "bytes",
          "name": "",
          "type": "bytes"
        }
      ],
      "stateMutability": "view",
      "type": "function"
    },
    {
      "inputs": [],
      "name": "latestRequestId",
      "outputs": [
        {
          "internalType": "bytes32",
          "name": "",
          "type": "bytes32"
        }
      ],
      "stateMutability": "view",
      "type": "function"
    },
    {
      "inputs": [],
      "name": "latestResponse",
      "outputs": [
        {
          "internalType": "bytes",
          "name": "",
          "type": "bytes"
        }
      ],
      "stateMutability": "view",
      "type": "function"
    },
    {
      "inputs": [],
      "name": "owner",
      "outputs": [
        {
          "internalType": "address",
          "name": "",
          "type": "address"
        }
      ],
      "stateMutability": "view",
      "type": "function"
    },
    {
      "inputs": [
        {
          "internalType": "string",
          "name": "_cid",
          "type": "string"
        },
        {
          "internalType": "enum MembershipMarket.nftCategory",
          "name": "_category",
          "type": "uint8"
        }
      ],
      "name": "setCategoryFunctionScripts",
      "outputs": [],
      "stateMutability": "nonpayable",
      "type": "function"
    },
    {
      "inputs": [
        {
          "internalType": "address",
          "name": "to",
          "type": "address"
        }
      ],
      "name": "transferOwnership",
      "outputs": [],
      "stateMutability": "nonpayable",
      "type": "function"
    },
    {
      "inputs": [
        {
          "internalType": "address",
          "name": "oracle",
          "type": "address"
        }
      ],
      "name": "updateOracleAddress",
      "outputs": [],
      "stateMutability": "nonpayable",
      "type": "function"
    },
    {
      "inputs": [
        {
          "internalType": "string",
          "name": "source",
          "type": "string"
        },
        {
          "internalType": "bytes",
          "name": "secrets",
          "type": "bytes"
        },
        {
          "internalType": "string[]",
          "name": "args",
          "type": "string[]"
        },
        {
          "internalType": "uint64",
          "name": "subscriptionId",
          "type": "uint64"
        },
        {
          "internalType": "uint32",
          "name": "gasLimit",
          "type": "uint32"
        },
        {
          "internalType": "address",
          "name": "_nft",
          "type": "address"
        },
        {
          "internalType": "uint256",
          "name": "tokenID",
          "type": "uint256"
        }
      ],
      "name": "useNft",
      "outputs": [],
      "stateMutability": "nonpayable",
      "type": "function"
    }
  ],
  "bytecode": "0x60a06040523480156200001157600080fd5b50604051620057ca380380620057ca8339810160408190526200003491620001a9565b600080546001600160a01b0319166001600160a01b038316178155339081906001600160a01b038216620000af5760405162461bcd60e51b815260206004820152601860248201527f43616e6e6f7420736574206f776e657220746f207a65726f000000000000000060448201526064015b60405180910390fd5b600280546001600160a01b0319166001600160a01b0384811691909117909155811615620000e257620000e281620000fc565b5050505060601b6001600160601b03191660805262000201565b6001600160a01b038116331415620001575760405162461bcd60e51b815260206004820152601760248201527f43616e6e6f74207472616e7366657220746f2073656c660000000000000000006044820152606401620000a6565b600380546001600160a01b0319166001600160a01b03838116918217909255600254604051919216907fed8889f560326eb138920d842192f0eb3dd22b4f139c87a2c57538e05bae127890600090a350565b60008060408385031215620001bd57600080fd5b8251620001ca81620001e8565b6020840151909250620001dd81620001e8565b809150509250929050565b6001600160a01b0381168114620001fe57600080fd5b50565b60805160601c61559c6200022e600039600081816106c70152818161082e0152611361015261559c6000f3fe608060405260043610620001875760003560e01c8063bef3a2f011620000db578063e7f76a0b1162000089578063f7023bb61162000060578063f7023bb6146200046b578063ff2aac561462000490578063fffeb84e14620004b557600080fd5b8063e7f76a0b14620003e3578063ec0edbb3146200042f578063f2fde38b146200044657600080fd5b8063d328a91e11620000be578063d328a91e1462000363578063d4b39175146200037b578063e127108a14620003be57600080fd5b8063bef3a2f01462000317578063c596a044146200033e57600080fd5b806368ca40b1116200013957806379ba5097116200011c57806379ba509714620002ba5780638da5cb5b14620002d25780638dba0e7b14620002f257600080fd5b806368ca40b1146200027e578063768c01f914620002a357600080fd5b806330bda99d116200016e57806330bda99d14620001de578063332a0d8614620002035780633ab25c3c146200022857600080fd5b80630ca76175146200018c5780631aa46f5914620001b3575b600080fd5b3480156200019957600080fd5b50620001b1620001ab3660046200272e565b620004cd565b005b348015620001c057600080fd5b50620001cb60045481565b6040519081526020015b60405180910390f35b348015620001eb57600080fd5b50620001b1620001fd366004620026e5565b62000576565b3480156200021057600080fd5b50620001b16200022236600462002593565b62000590565b3480156200023557600080fd5b50620002656200024736600462002593565b6001600160a01b039081166000908152600860205260409020541690565b6040516001600160a01b039091168152602001620001d5565b3480156200028b57600080fd5b50620001b16200029d36600462002683565b620005be565b620001b1620002b43660046200263d565b62000825565b348015620002c757600080fd5b50620001b162000c86565b348015620002df57600080fd5b506002546001600160a01b031662000265565b348015620002ff57600080fd5b50620002656200031136600462002958565b62000d3d565b3480156200032457600080fd5b506200032f62000e12565b604051620001d5919062002c2d565b3480156200034b57600080fd5b50620001b16200035d36600462002904565b62000ea8565b3480156200037057600080fd5b506200032f62000efe565b3480156200038857600080fd5b50620003a06200039a36600462002a18565b62000fa0565b6040516bffffffffffffffffffffffff9091168152602001620001d5565b348015620003cb57600080fd5b50620001b1620003dd366004620027ee565b6200103e565b348015620003f057600080fd5b50620004206200040236600462002593565b6001600160a01b03166000908152600f602052604090205460ff1690565b604051620001d5919062002c6b565b620001b162000440366004620025d3565b62001128565b3480156200045357600080fd5b50620001b16200046536600462002593565b62001317565b3480156200047857600080fd5b50620001b16200048a36600462002593565b6200132f565b3480156200049d57600080fd5b50620001cb620004af36600462002b42565b62001357565b348015620004c257600080fd5b506200032f6200138d565b60008381526001602052604090205483906001600160a01b0316331462000520576040517fa0c5ec6300000000000000000000000000000000000000000000000000000000815260040160405180910390fd5b60008181526001602052604080822080546001600160a01b03191690555182917f85e1543bf2f84fe80c6badbce3648c8539ad1df4d2b3d822938ca0538be727e691a2620005708484846200139c565b50505050565b62000580620014ba565b6200058c828262001518565b5050565b6200059a620014ba565b6001600160a01b03166000908152600b60205260409020805460ff19166001179055565b6001600160a01b03858116600090815260096020908152604080832054841683526008909152908190205490516331a9108f60e11b815260048101869052868316929190911690636352211e9060240160206040518083038186803b1580156200062757600080fd5b505afa1580156200063c573d6000803e3d6000fd5b505050506040513d601f19601f82011682018060405250810190620006629190620025b3565b6001600160a01b031614620006be5760405162461bcd60e51b815260206004820152601460248201527f796f7520617265206e6f7420616e206f776e657200000000000000000000000060448201526064015b60405180910390fd5b6000620006ec837f000000000000000000000000000000000000000000000000000000000000000062001599565b6040805160a0810182528681526001600160a01b03898116600081815260096020908152858220805485168287019081528d8616878901908152606088018d81528c151560808a01908152968652600785528986208f875285528986209851895591516001890180546001600160a01b0319908116928a16929092179055905160028901805490921690881617905551600387015592516004958601805460ff191691151591909117905591548316815260089091528390205492517f095ea7b300000000000000000000000000000000000000000000000000000000815230928101929092526024820188905292935091169063095ea7b390604401600060405180830381600087803b1580156200080457600080fd5b505af115801562000819573d6000803e3d6000fd5b50505050505050505050565b600062000853347f000000000000000000000000000000000000000000000000000000000000000062001599565b6001600160a01b038086166000908152600760209081526040808320878452825291829020825160a0810184528154815260018201548516928101929092526002810154909316918101919091526003820154606082015260049091015460ff16151560808201819052919250906200090f5760405162461bcd60e51b815260206004820152601060248201527f746f6b656e206e6f74206c6973746564000000000000000000000000000000006044820152606401620006b5565b8060600151821015620009655760405162461bcd60e51b815260206004820152600960248201527f6c6f7720707269636500000000000000000000000000000000000000000000006044820152606401620006b5565b600060646200097634600a62002ffb565b62000982919062002e17565b905060008083604001516001600160a01b03168334620009a391906200301d565b604051600081818185875af1925050503d8060008114620009e1576040519150601f19603f3d011682016040523d82523d6000602084013e620009e6565b606091505b509150915060008085602001516001600160a01b031660028662000a0b919062002e17565b604051600081818185875af1925050503d806000811462000a49576040519150601f19603f3d011682016040523d82523d6000602084013e62000a4e565b606091505b509150915081801562000a5e5750835b62000a985760405162461bcd60e51b8152602060048201526009602482015268151e0811985a5b195960ba1b6044820152606401620006b5565b88600760008c6001600160a01b03166001600160a01b0316815260200190815260200160002060008a815260200190815260200160002060020160006101000a8154816001600160a01b0302191690836001600160a01b0316021790555086600760008c6001600160a01b03166001600160a01b0316815260200190815260200160002060008a8152602001908152602001600020600301819055506000600760008c6001600160a01b03166001600160a01b0316815260200190815260200160002060008a815260200190815260200160002060040160006101000a81548160ff02191690831515021790555060086000600960008d6001600160a01b03166001600160a01b0316815260200190815260200160002060009054906101000a90046001600160a01b03166001600160a01b03166001600160a01b0316815260200190815260200160002060009054906101000a90046001600160a01b03166001600160a01b03166323b872dd338b8b6040518463ffffffff1660e01b815260040162000c46939291906001600160a01b039384168152919092166020820152604081019190915260600190565b600060405180830381600087803b15801562000c6157600080fd5b505af115801562000c76573d6000803e3d6000fd5b5050505050505050505050505050565b6003546001600160a01b0316331462000ce25760405162461bcd60e51b815260206004820152601660248201527f4d7573742062652070726f706f736564206f776e6572000000000000000000006044820152606401620006b5565b600280546001600160a01b0319808216339081179093556003805490911690556040516001600160a01b03909116919082907f8be0079c531659141344cd1fd0a4f28419497f9722a3daafe3b4186f6b6457e090600090a350565b600080898989888860405162000d539062002275565b62000d6395949392919062002c94565b604051809103906000f08015801562000d80573d6000803e3d6000fd5b5033600081815260086020908152604080832080546001600160a01b0387166001600160a01b03199182168117909255908452600983528184208054909116909417909355600a81528282208b9055600e8152828220889055600f9052208054919250849160ff1916600183600281111562000e005762000e0062003113565b02179055509998505050505050505050565b6005805462000e219062003075565b80601f016020809104026020016040519081016040528092919081815260200182805462000e4f9062003075565b801562000ea05780601f1062000e745761010080835404028352916020019162000ea0565b820191906000526020600020905b81548152906001019060200180831162000e8257829003601f168201915b505050505081565b816010600083600281111562000ec25762000ec262003113565b600281111562000ed65762000ed662003113565b8152602001908152602001600020908051906020019062000ef992919062002283565b505050565b60008054604080517fd328a91e00000000000000000000000000000000000000000000000000000000815290516060936001600160a01b039093169263d328a91e9260048082019391829003018186803b15801562000f5c57600080fd5b505afa15801562000f71573d6000803e3d6000fd5b505050506040513d6000823e601f3d908101601f1916820160405262000f9b919081019062002798565b905090565b600080546001600160a01b031663d227d2458562000fbe88620015d7565b86866040518563ffffffff1660e01b815260040162000fe1949392919062002d33565b60206040518083038186803b15801562000ffa57600080fd5b505afa1580156200100f573d6000803e3d6000fd5b505050506040513d601f19601f8201168201806040525081019062001035919062002ba5565b95945050505050565b6040516331a9108f60e11b81526004810182905233906001600160a01b03841690636352211e9060240160206040518083038186803b1580156200108157600080fd5b505afa15801562001096573d6000803e3d6000fd5b505050506040513d601f19601f82011682018060405250810190620010bc9190620025b3565b6001600160a01b031614620010d057600080fd5b6000620010e48b8b8b8b8b8b8b8b620018d7565b6000908152600c6020908152604080832080546001600160a01b0319166001600160a01b039790971696909617909555600d90529290922055505050505050505050565b6001600160a01b0382166000908152600a60205260409020543410801590620011515750600034115b6200119f5760405162461bcd60e51b815260206004820152601260248201527f616d6f756e74206e6f7420636f727265637400000000000000000000000000006044820152606401620006b5565b60006064620011b034600a62002ffb565b620011bc919062002e17565b6001600160a01b0380851660009081526009602052604081205492935091829116620011e984346200301d565b604051600081818185875af1925050503d806000811462001227576040519150601f19603f3d011682016040523d82523d6000602084013e6200122c565b606091505b5091509150816200126c5760405162461bcd60e51b8152602060048201526009602482015268151e0811985a5b195960ba1b6044820152606401620006b5565b6001600160a01b03808616600081815260096020908152604080832054851683526008825280832054938352600e909152902054911690819063cd279c7c908990620012b9904262002dfc565b886040518463ffffffff1660e01b8152600401620012da9392919062002c03565b600060405180830381600087803b158015620012f557600080fd5b505af11580156200130a573d6000803e3d6000fd5b5050505050505050505050565b62001321620014ba565b6200132c81620019ea565b50565b62001339620014ba565b600080546001600160a01b0319166001600160a01b03831617905550565b60008062001386837f000000000000000000000000000000000000000000000000000000000000000062001599565b9392505050565b6006805462000e219062003075565b8151620013b190600590602085019062002283565b508051620013c790600690602084019062002283565b50600082806020019051810190620013e0919062002798565b6000858152600c6020908152604080832054600d909252918290205491517f162094c40000000000000000000000000000000000000000000000000000000081529293506001600160a01b03169163162094c4916200144491859060040162002cdd565b600060405180830381600087803b1580156200145f57600080fd5b505af115801562001474573d6000803e3d6000fd5b50505050837f7bab0ec163b5c132c72b8146ac4d6e067e82ed58f8b131150aa71c92589115628484604051620014ac92919062002c42565b60405180910390a250505050565b6002546001600160a01b03163314620015165760405162461bcd60e51b815260206004820152601660248201527f4f6e6c792063616c6c61626c65206279206f776e6572000000000000000000006044820152606401620006b5565b565b60008181526001602052604090205481906001600160a01b0316156200156a576040517f8b457ad200000000000000000000000000000000000000000000000000000000815260040160405180910390fd5b50600090815260016020526040902080546001600160a01b0319166001600160a01b0392909216919091179055565b600080620015a78362001a97565b90506000670de0b6b3a7640000620015c0868462002ffb565b620015cc919062002e17565b925050505b92915050565b6060620015e362002312565b8051620015f39061010062001b28565b5062001635816040518060400160405280600c81526020017f636f64654c6f636174696f6e000000000000000000000000000000000000000081525062001ba9565b62001659818460000151600181111562001653576200165362003113565b62001bc6565b6200169a816040518060400160405280600881526020017f6c616e677561676500000000000000000000000000000000000000000000000081525062001ba9565b620016b8818460400151600081111562001653576200165362003113565b620016f9816040518060400160405280600681526020017f736f75726365000000000000000000000000000000000000000000000000000081525062001ba9565b6200170981846060015162001ba9565b60a08301515115620017bf5762001756816040518060400160405280600481526020017f617267730000000000000000000000000000000000000000000000000000000081525062001ba9565b620017618162001c04565b60005b8360a0015151811015620017b3576200179e828560a00151838151811062001790576200179062003129565b602002602001015162001ba9565b80620017aa81620030b2565b91505062001764565b50620017bf8162001c2c565b60808301515115620018cf57600083602001516001811115620017e657620017e662003113565b14156200181f576040517fa80d31f700000000000000000000000000000000000000000000000000000000815260040160405180910390fd5b62001860816040518060400160405280600f81526020017f736563726574734c6f636174696f6e000000000000000000000000000000000081525062001ba9565b6200187e818460200151600181111562001653576200165362003113565b620018bf816040518060400160405280600781526020017f736563726574730000000000000000000000000000000000000000000000000081525062001ba9565b620018cf81846080015162001c4e565b515192915050565b6000620019146040805160c08101909152806000815260200160008152602001600081526020016060815260200160608152602001606081525090565b6200195d6000808c8c8080601f0160208091040260200160405190810160405280939291908181526020018383808284376000920191909152508795949392505062001c5d9050565b8615620019a857620019a888888080601f016020809104026020016040519081016040528093929190818152602001838380828437600092019190915250859392505062001cfe9050565b8415620019c757620019c7620019bf868862003037565b829062001d46565b6000620019d682868662001d87565b60048190559b9a5050505050505050505050565b6001600160a01b03811633141562001a455760405162461bcd60e51b815260206004820152601760248201527f43616e6e6f74207472616e7366657220746f2073656c660000000000000000006044820152606401620006b5565b600380546001600160a01b0319166001600160a01b03838116918217909255600254604051919216907fed8889f560326eb138920d842192f0eb3dd22b4f139c87a2c57538e05bae127890600090a350565b600080826001600160a01b031663feaf968c6040518163ffffffff1660e01b815260040160a06040518083038186803b15801562001ad457600080fd5b505afa15801562001ae9573d6000803e3d6000fd5b505050506040513d601f19601f8201168201806040525081019062001b0f919062002b5c565b505050915050806402540be40062001386919062002f33565b60408051808201909152606081526000602082015262001b4a602083620030d0565b1562001b795762001b5d602083620030d0565b62001b6a9060206200301d565b62001b76908362002dfc565b91505b60208084018390526040518085526000815290818401018181101562001b9e57600080fd5b604052509192915050565b62001bb8826003835162001f05565b815162000ef990826200203c565b815162001bd59060c26200205f565b506200058c828260405160200162001bef91815260200190565b60405160208183030381529060405262001c4e565b62001c11816004620020d0565b60018160200181815162001c26919062002dfc565b90525050565b62001c39816007620020d0565b60018160200181815162001c2691906200301d565b62001bb8826002835162001f05565b805162001c96576040517f22ce3edd00000000000000000000000000000000000000000000000000000000815260040160405180910390fd5b8383600181111562001cac5762001cac62003113565b9081600181111562001cc25762001cc262003113565b9052506040840182801562001cdb5762001cdb62003113565b9081801562001cee5762001cee62003113565b9052506060909301929092525050565b805162001d37576040517fe889636f00000000000000000000000000000000000000000000000000000000815260040160405180910390fd5b60016020830152608090910152565b805162001d7f576040517ffe936cb700000000000000000000000000000000000000000000000000000000815260040160405180910390fd5b60a090910152565b6000805481906001600160a01b03166328242b048562001da788620015d7565b866040518463ffffffff1660e01b815260040162001dc89392919062002cf8565b602060405180830381600087803b15801562001de357600080fd5b505af115801562001df8573d6000803e3d6000fd5b505050506040513d601f19601f8201168201806040525081019062001e1e919062002714565b905060008054906101000a90046001600160a01b03166001600160a01b0316635ab1bd536040518163ffffffff1660e01b815260040160206040518083038186803b15801562001e6d57600080fd5b505afa15801562001e82573d6000803e3d6000fd5b505050506040513d601f19601f8201168201806040525081019062001ea89190620025b3565b60008281526001602052604080822080546001600160a01b0319166001600160a01b039490941693909317909255905182917f1131472297a800fee664d1d89cfa8f7676ff07189ecc53f80bbb5f4969099db891a2949350505050565b60178167ffffffffffffffff161162001f2f578251620005709060e0600585901b1683176200205f565b60ff8167ffffffffffffffff161162001f7657825162001f5b906018611fe0600586901b16176200205f565b508251620005709067ffffffffffffffff83166001620020e9565b61ffff8167ffffffffffffffff161162001fbe57825162001fa3906019611fe0600586901b16176200205f565b508251620005709067ffffffffffffffff83166002620020e9565b63ffffffff8167ffffffffffffffff16116200200857825162001fed90601a611fe0600586901b16176200205f565b508251620005709067ffffffffffffffff83166004620020e9565b82516200202190601b611fe0600586901b16176200205f565b508251620005709067ffffffffffffffff83166008620020e9565b604080518082019091526060815260006020820152620013868383845162002179565b60408051808201909152606081526000602082015282515160006200208682600162002dfc565b905084602001518210620020ac57620020ac85620020a683600262002ffb565b6200225a565b8451602083820101858153508051821115620020c6578181525b5093949350505050565b815162000ef990601f611fe0600585901b16176200205f565b60408051808201909152606081526000602082015283515160006200210f828562002dfc565b9050856020015181111562002130576200213086620020a683600262002ffb565b60006001620021428661010062002e77565b6200214e91906200301d565b905086518281018783198251161781525080518311156200216d578281525b50959695505050505050565b60408051808201909152606081526000602082015282518211156200219d57600080fd5b8351516000620021ae848362002dfc565b90508560200151811115620021cf57620021cf86620020a683600262002ffb565b855180518382016020019160009180851115620021ea578482525b505050602086015b602086106200223257805182526200220c60208362002dfc565b91506200221b60208262002dfc565b90506200222a6020876200301d565b9550620021f2565b51815160001960208890036101000a0190811690199190911617905250849150509392505050565b815162002268838362001b28565b506200057083826200203c565b6123fb806200316c83390190565b828054620022919062003075565b90600052602060002090601f016020900481019282620022b5576000855562002300565b82601f10620022d057805160ff191683800117855562002300565b8280016001018555821562002300579182015b8281111562002300578251825591602001919060010190620022e3565b506200230e92915062002348565b5090565b60405180604001604052806200233b604051806040016040528060608152602001600081525090565b8152602001600081525090565b5b808211156200230e576000815560010162002349565b600067ffffffffffffffff808411156200237d576200237d6200313f565b8360051b60206200239081830162002d9d565b868152935080840185838101891015620023a957600080fd5b60009350835b88811015620023e957813586811115620023c7578586fd5b620023d58b828b01620024c4565b8452509183019190830190600101620023af565b5050505050509392505050565b60006200240d620024078462002dd1565b62002d9d565b90508281528383830111156200242257600080fd5b6200138683602083018462003046565b80356200243f8162003155565b919050565b600082601f8301126200245657600080fd5b62001386838335602085016200235f565b803580151581146200243f57600080fd5b60008083601f8401126200248b57600080fd5b50813567ffffffffffffffff811115620024a457600080fd5b602083019150836020828501011115620024bd57600080fd5b9250929050565b600082601f830112620024d657600080fd5b8135620024e7620024078262002dd1565b818152846020838601011115620024fd57600080fd5b816020850160208301376000918101602001919091529392505050565b8035600181106200243f57600080fd5b8035600281106200243f57600080fd5b8035600381106200243f57600080fd5b803563ffffffff811681146200243f57600080fd5b803567ffffffffffffffff811681146200243f57600080fd5b805169ffffffffffffffffffff811681146200243f57600080fd5b600060208284031215620025a657600080fd5b8135620013868162003155565b600060208284031215620025c657600080fd5b8151620013868162003155565b600080600060608486031215620025e957600080fd5b8335620025f68162003155565b92506020840135620026088162003155565b9150604084013567ffffffffffffffff8111156200262557600080fd5b6200263386828701620024c4565b9150509250925092565b6000806000606084860312156200265357600080fd5b8335620026608162003155565b92506020840135620026728162003155565b929592945050506040919091013590565b600080600080600060a086880312156200269c57600080fd5b8535620026a98162003155565b94506020860135620026bb8162003155565b93506040860135925060608601359150620026d96080870162002467565b90509295509295909350565b60008060408385031215620026f957600080fd5b8235620027068162003155565b946020939093013593505050565b6000602082840312156200272757600080fd5b5051919050565b6000806000606084860312156200274457600080fd5b83359250602084013567ffffffffffffffff808211156200276457600080fd5b6200277287838801620024c4565b935060408601359150808211156200278957600080fd5b506200263386828701620024c4565b600060208284031215620027ab57600080fd5b815167ffffffffffffffff811115620027c357600080fd5b8201601f81018413620027d557600080fd5b620027e684825160208401620023f6565b949350505050565b60008060008060008060008060008060e08b8d0312156200280e57600080fd5b8a3567ffffffffffffffff808211156200282757600080fd5b620028358e838f0162002478565b909c509a5060208d01359150808211156200284f57600080fd5b6200285d8e838f0162002478565b909a50985060408d01359150808211156200287757600080fd5b818d0191508d601f8301126200288c57600080fd5b8135818111156200289c57600080fd5b8e60208260051b8501011115620028b257600080fd5b602083019850809750505050620028cc60608c016200255f565b9350620028dc60808c016200254a565b9250620028ec60a08c0162002432565b915060c08b013590509295989b9194979a5092959850565b600080604083850312156200291857600080fd5b823567ffffffffffffffff8111156200293057600080fd5b6200293e85828601620024c4565b9250506200294f602084016200253a565b90509250929050565b600080600080600080600080610100898b0312156200297657600080fd5b883567ffffffffffffffff808211156200298f57600080fd5b6200299d8c838d01620024c4565b995060208b0135915080821115620029b457600080fd5b50620029c38b828c01620024c4565b9750506040890135955060608901359450620029e260808a0162002467565b9350620029f260a08a0162002467565b925060c0890135915062002a0960e08a016200253a565b90509295985092959890939650565b6000806000806080858703121562002a2f57600080fd5b843567ffffffffffffffff8082111562002a4857600080fd5b9086019060c0828903121562002a5d57600080fd5b62002a6762002d71565b62002a72836200252a565b815262002a82602084016200252a565b602082015262002a95604084016200251a565b604082015260608301358281111562002aad57600080fd5b62002abb8a828601620024c4565b60608301525060808301358281111562002ad457600080fd5b62002ae28a828601620024c4565b60808301525060a08301358281111562002afb57600080fd5b62002b098a82860162002444565b60a083015250955062002b22915050602086016200255f565b925062002b32604086016200254a565b9396929550929360600135925050565b60006020828403121562002b5557600080fd5b5035919050565b600080600080600060a0868803121562002b7557600080fd5b62002b808662002578565b9450602086015193506040860151925060608601519150620026d96080870162002578565b60006020828403121562002bb857600080fd5b81516bffffffffffffffffffffffff811681146200138657600080fd5b6000815180845262002bef81602086016020860162003046565b601f01601f19169290920160200192915050565b6001600160a01b038416815282602082015260606040820152600062001035606083018462002bd5565b60208152600062001386602083018462002bd5565b60408152600062002c57604083018562002bd5565b828103602084015262001035818562002bd5565b602081016003831062002c8e57634e487b7160e01b600052602160045260246000fd5b91905290565b60a08152600062002ca960a083018862002bd5565b828103602084015262002cbd818862002bd5565b604084019690965250509115156060830152151560809091015292915050565b828152604060208201526000620027e6604083018462002bd5565b67ffffffffffffffff8416815260606020820152600062002d1d606083018562002bd5565b905063ffffffff83166040830152949350505050565b67ffffffffffffffff8516815260806020820152600062002d58608083018662002bd5565b63ffffffff949094166040830152506060015292915050565b60405160c0810167ffffffffffffffff8111828210171562002d975762002d976200313f565b60405290565b604051601f8201601f1916810167ffffffffffffffff8111828210171562002dc95762002dc96200313f565b604052919050565b600067ffffffffffffffff82111562002dee5762002dee6200313f565b50601f01601f191660200190565b6000821982111562002e125762002e12620030e7565b500190565b60008262002e295762002e29620030fd565b500490565b600181815b8085111562002e6f57816000190482111562002e535762002e53620030e7565b8085161562002e6157918102915b93841c939080029062002e33565b509250929050565b600062001386838360008262002e9057506001620015d1565b8162002e9f57506000620015d1565b816001811462002eb8576002811462002ec35762002ee3565b6001915050620015d1565b60ff84111562002ed75762002ed7620030e7565b50506001821b620015d1565b5060208310610133831016604e8410600b841016171562002f08575081810a620015d1565b62002f14838362002e2e565b806000190482111562002f2b5762002f2b620030e7565b029392505050565b60007f7fffffffffffffffffffffffffffffffffffffffffffffffffffffffffffffff60008413600084138583048511828216161562002f775762002f77620030e7565b7f8000000000000000000000000000000000000000000000000000000000000000600087128682058812818416161562002fb55762002fb5620030e7565b6000871292508782058712848416161562002fd45762002fd4620030e7565b8785058712818416161562002fed5762002fed620030e7565b505050929093029392505050565b6000816000190483118215151615620030185762003018620030e7565b500290565b600082821015620030325762003032620030e7565b500390565b6000620013863684846200235f565b60005b838110156200306357818101518382015260200162003049565b83811115620005705750506000910152565b600181811c908216806200308a57607f821691505b60208210811415620030ac57634e487b7160e01b600052602260045260246000fd5b50919050565b6000600019821415620030c957620030c9620030e7565b5060010190565b600082620030e257620030e2620030fd565b500690565b634e487b7160e01b600052601160045260246000fd5b634e487b7160e01b600052601260045260246000fd5b634e487b7160e01b600052602160045260246000fd5b634e487b7160e01b600052603260045260246000fd5b634e487b7160e01b600052604160045260246000fd5b6001600160a01b03811681146200132c57600080fdfe60806040526000600a819055600b55600c805461ffff191690553480156200002657600080fd5b50604051620023fb380380620023fb833981016040819052620000499162000291565b845185908590620000629060009060208501906200011e565b508051620000789060019060208401906200011e565b505050620000956200008f620000c860201b60201c565b620000cc565b600b92909255600c80549215156101000261ff00199215159290921661ffff1990931692909217179055506200037d9050565b3390565b600680546001600160a01b038381166001600160a01b0319831681179093556040519116919082907f8be0079c531659141344cd1fd0a4f28419497f9722a3daafe3b4186f6b6457e090600090a35050565b8280546200012c906200032a565b90600052602060002090601f0160209004810192826200015057600085556200019b565b82601f106200016b57805160ff19168380011785556200019b565b828001600101855582156200019b579182015b828111156200019b5782518255916020019190600101906200017e565b50620001a9929150620001ad565b5090565b5b80821115620001a95760008155600101620001ae565b80518015158114620001d557600080fd5b919050565b600082601f830112620001ec57600080fd5b81516001600160401b038082111562000209576200020962000367565b604051601f8301601f19908116603f0116810190828211818310171562000234576200023462000367565b816040528381526020925086838588010111156200025157600080fd5b600091505b8382101562000275578582018301518183018401529082019062000256565b83821115620002875760008385830101525b9695505050505050565b600080600080600060a08688031215620002aa57600080fd5b85516001600160401b0380821115620002c257600080fd5b620002d089838a01620001da565b96506020880151915080821115620002e757600080fd5b50620002f688828901620001da565b945050604086015192506200030e60608701620001c4565b91506200031e60808701620001c4565b90509295509295909350565b600181811c908216806200033f57607f821691505b602082108114156200036157634e487b7160e01b600052602260045260246000fd5b50919050565b634e487b7160e01b600052604160045260246000fd5b61206e806200038d6000396000f3fe608060405234801561001057600080fd5b506004361061018d5760003560e01c80636352211e116100e3578063b88d4fde1161008c578063e985e9c511610066578063e985e9c514610321578063f2fde38b1461035d578063f99bc3781461037057600080fd5b8063b88d4fde146102e8578063c87b56dd146102fb578063cd279c7c1461030e57600080fd5b80638da5cb5b116100bd5780638da5cb5b146102bc57806395d89b41146102cd578063a22cb465146102d557600080fd5b80636352211e1461028e57806370a08231146102a1578063715018a6146102b457600080fd5b806319d1997a1161014557806342842e0e1161011f57806342842e0e1461025557806342966c681461026857806349fcbc541461027b57600080fd5b806319d1997a1461022657806320c5429b1461022f57806323b872dd1461024257600080fd5b8063081812fc11610176578063081812fc146101cf578063095ea7b3146101fa57806318160ddd1461020f57600080fd5b806301ffc9a71461019257806306fdde03146101ba575b600080fd5b6101a56101a0366004611e63565b610378565b60405190151581526020015b60405180910390f35b6101c2610389565b6040516101b19190611f4d565b6101e26101dd366004611e9d565b61041b565b6040516001600160a01b0390911681526020016101b1565b61020d610208366004611dce565b610442565b005b610218600a5481565b6040519081526020016101b1565b610218600b5481565b61020d61023d366004611e9d565b610579565b61020d610250366004611cda565b6105ef565b61020d610263366004611cda565b610666565b61020d610276366004611e9d565b610681565b6101a5610289366004611e9d565b610778565b6101e261029c366004611e9d565b6107a9565b6102186102af366004611c8c565b61080e565b61020d6108a8565b6006546001600160a01b03166101e2565b6101c26108bc565b61020d6102e3366004611d92565b6108cb565b61020d6102f6366004611d16565b6108d6565b6101c2610309366004611e9d565b610954565b61020d61031c366004611df8565b61095f565b6101a561032f366004611ca7565b6001600160a01b03918216600090815260056020908152604080832093909416825291909152205460ff1690565b61020d61036b366004611c8c565b610a68565b610218610af8565b600061038382610b0f565b92915050565b60606000805461039890611fbb565b80601f01602080910402602001604051908101604052809291908181526020018280546103c490611fbb565b80156104115780601f106103e657610100808354040283529160200191610411565b820191906000526020600020905b8154815290600101906020018083116103f457829003601f168201915b5050505050905090565b600061042682610b4d565b506000908152600460205260409020546001600160a01b031690565b600061044d826107a9565b9050806001600160a01b0316836001600160a01b031614156104dc5760405162461bcd60e51b815260206004820152602160248201527f4552433732313a20617070726f76616c20746f2063757272656e74206f776e6560448201527f720000000000000000000000000000000000000000000000000000000000000060648201526084015b60405180910390fd5b336001600160a01b03821614806104f857506104f8813361032f565b61056a5760405162461bcd60e51b815260206004820152603d60248201527f4552433732313a20617070726f76652063616c6c6572206973206e6f7420746f60448201527f6b656e206f776e6572206f7220617070726f76656420666f7220616c6c00000060648201526084016104d3565b6105748383610bb1565b505050565b610581610c1f565b600c548190610100900460ff16156105e25760008181526008602052604090205442106105e25760405162461bcd60e51b815260206004820152600f60248201526e139195081a185cc8195e1c1a5c9959608a1b60448201526064016104d3565b6105eb82610c79565b5050565b6105f93382610c82565b61065b5760405162461bcd60e51b815260206004820152602d60248201527f4552433732313a2063616c6c6572206973206e6f7420746f6b656e206f776e6560448201526c1c881bdc88185c1c1c9bdd9959609a1b60648201526084016104d3565b610574838383610d01565b610574838383604051806020016040528060008152506108d6565b600c548190610100900460ff16156106e25760008181526008602052604090205442106106e25760405162461bcd60e51b815260206004820152600f60248201526e139195081a185cc8195e1c1a5c9959608a1b60448201526064016104d3565b6106ec3383610c82565b61075d5760405162461bcd60e51b8152602060048201526024808201527f43616c6c6572206973206e6f7420746865206f776e6572206e6f72206170707260448201527f6f7665640000000000000000000000000000000000000000000000000000000060648201526084016104d3565b61076682610c79565b50600090815260086020526040812055565b600c54600090610100900460ff16156107a1575060009081526008602052604090205442101590565b506000919050565b6000818152600260205260408120546001600160a01b0316806103835760405162461bcd60e51b815260206004820152601860248201527f4552433732313a20696e76616c696420746f6b656e204944000000000000000060448201526064016104d3565b60006001600160a01b03821661088c5760405162461bcd60e51b815260206004820152602960248201527f4552433732313a2061646472657373207a65726f206973206e6f74206120766160448201527f6c6964206f776e6572000000000000000000000000000000000000000000000060648201526084016104d3565b506001600160a01b031660009081526003602052604090205490565b6108b0610c1f565b6108ba6000610f0f565b565b60606001805461039890611fbb565b6105eb338383610f61565b6108e03383610c82565b6109425760405162461bcd60e51b815260206004820152602d60248201527f4552433732313a2063616c6c6572206973206e6f7420746f6b656e206f776e6560448201526c1c881bdc88185c1c1c9bdd9959609a1b60648201526084016104d3565b61094e84848484611030565b50505050565b6060610383826110ae565b610967610c1f565b600a54600b54116109ba5760405162461bcd60e51b815260206004820152600860248201527f416c6c20536f6c6400000000000000000000000000000000000000000000000060448201526064016104d3565b6109c38361080e565b15610a105760405162461bcd60e51b815260206004820152601260248201527f616c7265616479206861766520746f6b656e000000000000000000000000000060448201526064016104d3565b6000610a1b60095490565b9050610a2b600980546001019055565b6001600a6000828254610a3e9190611f60565b90915550506000818152600860205260409020839055610a5e84826111b7565b61094e81836111d1565b610a70610c1f565b6001600160a01b038116610aec5760405162461bcd60e51b815260206004820152602660248201527f4f776e61626c653a206e6577206f776e657220697320746865207a65726f206160448201527f646472657373000000000000000000000000000000000000000000000000000060648201526084016104d3565b610af581610f0f565b50565b6000600a54600b54610b0a9190611f78565b905090565b60006001600160e01b031982167f490649060000000000000000000000000000000000000000000000000000000014806103835750610383826112b2565b6000818152600260205260409020546001600160a01b0316610af55760405162461bcd60e51b815260206004820152601860248201527f4552433732313a20696e76616c696420746f6b656e204944000000000000000060448201526064016104d3565b600081815260046020526040902080546001600160a01b0319166001600160a01b0384169081179091558190610be6826107a9565b6001600160a01b03167f8c5be1e5ebec7d5bd14f71427d1e84f3dd0314c0f7b2291e5b200ac8c7c3b92560405160405180910390a45050565b6006546001600160a01b031633146108ba5760405162461bcd60e51b815260206004820181905260248201527f4f776e61626c653a2063616c6c6572206973206e6f7420746865206f776e657260448201526064016104d3565b610af58161134d565b600080610c8e836107a9565b9050806001600160a01b0316846001600160a01b03161480610cd557506001600160a01b0380821660009081526005602090815260408083209388168352929052205460ff165b80610cf95750836001600160a01b0316610cee8461041b565b6001600160a01b0316145b949350505050565b826001600160a01b0316610d14826107a9565b6001600160a01b031614610d785760405162461bcd60e51b815260206004820152602560248201527f4552433732313a207472616e736665722066726f6d20696e636f72726563742060448201526437bbb732b960d91b60648201526084016104d3565b6001600160a01b038216610df35760405162461bcd60e51b8152602060048201526024808201527f4552433732313a207472616e7366657220746f20746865207a65726f2061646460448201527f726573730000000000000000000000000000000000000000000000000000000060648201526084016104d3565b610e00838383600161138d565b826001600160a01b0316610e13826107a9565b6001600160a01b031614610e775760405162461bcd60e51b815260206004820152602560248201527f4552433732313a207472616e736665722066726f6d20696e636f72726563742060448201526437bbb732b960d91b60648201526084016104d3565b600081815260046020908152604080832080546001600160a01b03199081169091556001600160a01b0387811680865260038552838620805460001901905590871680865283862080546001019055868652600290945282852080549092168417909155905184937fddf252ad1be2c89b69c2b068fc378daa952ba7f163c4a11628f55a4df523b3ef91a46105748383836001611468565b600680546001600160a01b038381166001600160a01b0319831681179093556040519116919082907f8be0079c531659141344cd1fd0a4f28419497f9722a3daafe3b4186f6b6457e090600090a35050565b816001600160a01b0316836001600160a01b03161415610fc35760405162461bcd60e51b815260206004820152601960248201527f4552433732313a20617070726f766520746f2063616c6c65720000000000000060448201526064016104d3565b6001600160a01b03838116600081815260056020908152604080832094871680845294825291829020805460ff191686151590811790915591519182527f17307eab39ab6107e8899845ad3d59bd9653f200f220920489ca2b5937696c31910160405180910390a3505050565b61103b848484610d01565b61104784848484611505565b61094e5760405162461bcd60e51b815260206004820152603260248201527f4552433732313a207472616e7366657220746f206e6f6e20455243373231526560448201527131b2b4bb32b91034b6b83632b6b2b73a32b960711b60648201526084016104d3565b60606110b982610b4d565b600082815260076020526040812080546110d290611fbb565b80601f01602080910402602001604051908101604052809291908181526020018280546110fe90611fbb565b801561114b5780601f106111205761010080835404028352916020019161114b565b820191906000526020600020905b81548152906001019060200180831161112e57829003601f168201915b50505050509050600061116960408051602081019091526000815290565b905080516000141561117c575092915050565b8151156111ae578082604051602001611196929190611ee2565b60405160208183030381529060405292505050919050565b610cf98461165d565b6105eb8282604051806020016040528060008152506116d1565b6000828152600260205260409020546001600160a01b031661125b5760405162461bcd60e51b815260206004820152602e60248201527f45524337323155524953746f726167653a2055524920736574206f66206e6f6e60448201527f6578697374656e7420746f6b656e00000000000000000000000000000000000060648201526084016104d3565b6000828152600760209081526040909120825161127a92840190611b2b565b506040518281527ff8e1a15aba9398e019f0b49df1a4fde98ee17ae345cb5f6b5e2c27f5033e8ce79060200160405180910390a15050565b60006001600160e01b031982167f80ac58cd00000000000000000000000000000000000000000000000000000000148061131557506001600160e01b031982167f5b5e139f00000000000000000000000000000000000000000000000000000000145b8061038357507f01ffc9a7000000000000000000000000000000000000000000000000000000006001600160e01b0319831614610383565b6113568161174f565b6000818152600760205260409020805461136f90611fbb565b159050610af5576000818152600760205260408120610af591611baf565b600c548290610100900460ff16156113ee5760008181526008602052604090205442106113ee5760405162461bcd60e51b815260206004820152600f60248201526e139195081a185cc8195e1c1a5c9959608a1b60448201526064016104d3565b600c5460ff16611461576001600160a01b038516158061141557506001600160a01b038416155b6114615760405162461bcd60e51b815260206004820152601560248201527f746f6b656e2063616e6e6f74207472616e73666572000000000000000000000060448201526064016104d3565b5050505050565b600c5460ff1661094e576001600160a01b0384166114bb5760405182906001600160a01b038516907fe9274a84b19e9428826de6bae8c48329354f8f0e73f771b97cae2d9dccd45a2790600090a361094e565b6001600160a01b03831661094e5760405182906001600160a01b038516907fec9ab91322523c899ede7830ec9bfc992b5981cdcc27b91162fb23de5791117b90600090a350505050565b60006001600160a01b0384163b1561165257604051630a85bd0160e11b81526001600160a01b0385169063150b7a0290611549903390899088908890600401611f11565b602060405180830381600087803b15801561156357600080fd5b505af1925050508015611593575060408051601f3d908101601f1916820190925261159091810190611e80565b60015b611638573d8080156115c1576040519150601f19603f3d011682016040523d82523d6000602084013e6115c6565b606091505b5080516116305760405162461bcd60e51b815260206004820152603260248201527f4552433732313a207472616e7366657220746f206e6f6e20455243373231526560448201527131b2b4bb32b91034b6b83632b6b2b73a32b960711b60648201526084016104d3565b805181602001fd5b6001600160e01b031916630a85bd0160e11b149050610cf9565b506001949350505050565b606061166882610b4d565b600061167f60408051602081019091526000815290565b9050600081511161169f57604051806020016040528060008152506116ca565b806116a9846117fc565b6040516020016116ba929190611ee2565b6040516020818303038152906040525b9392505050565b6116db83836118a6565b6116e86000848484611505565b6105745760405162461bcd60e51b815260206004820152603260248201527f4552433732313a207472616e7366657220746f206e6f6e20455243373231526560448201527131b2b4bb32b91034b6b83632b6b2b73a32b960711b60648201526084016104d3565b600061175a826107a9565b905061176a81600084600161138d565b611773826107a9565b600083815260046020908152604080832080546001600160a01b03199081169091556001600160a01b0385168085526003845282852080546000190190558785526002909352818420805490911690555192935084927fddf252ad1be2c89b69c2b068fc378daa952ba7f163c4a11628f55a4df523b3ef908390a46105eb816000846001611468565b6060600061180983611a49565b600101905060008167ffffffffffffffff8111156118295761182961200c565b6040519080825280601f01601f191660200182016040528015611853576020820181803683370190505b5090508181016020015b600019017f3031323334353637383961626364656600000000000000000000000000000000600a86061a8153600a85049450846118995761189e565b61185d565b509392505050565b6001600160a01b0382166118fc5760405162461bcd60e51b815260206004820181905260248201527f4552433732313a206d696e7420746f20746865207a65726f206164647265737360448201526064016104d3565b6000818152600260205260409020546001600160a01b0316156119615760405162461bcd60e51b815260206004820152601c60248201527f4552433732313a20746f6b656e20616c7265616479206d696e7465640000000060448201526064016104d3565b61196f60008383600161138d565b6000818152600260205260409020546001600160a01b0316156119d45760405162461bcd60e51b815260206004820152601c60248201527f4552433732313a20746f6b656e20616c7265616479206d696e7465640000000060448201526064016104d3565b6001600160a01b038216600081815260036020908152604080832080546001019055848352600290915280822080546001600160a01b0319168417905551839291907fddf252ad1be2c89b69c2b068fc378daa952ba7f163c4a11628f55a4df523b3ef908290a46105eb600083836001611468565b6000807a184f03e93ff9f4daa797ed6e38ed64bf6a1f0100000000000000008310611a92577a184f03e93ff9f4daa797ed6e38ed64bf6a1f010000000000000000830492506040015b6d04ee2d6d415b85acef81000000008310611abe576d04ee2d6d415b85acef8100000000830492506020015b662386f26fc100008310611adc57662386f26fc10000830492506010015b6305f5e1008310611af4576305f5e100830492506008015b6127108310611b0857612710830492506004015b60648310611b1a576064830492506002015b600a83106103835760010192915050565b828054611b3790611fbb565b90600052602060002090601f016020900481019282611b595760008555611b9f565b82601f10611b7257805160ff1916838001178555611b9f565b82800160010185558215611b9f579182015b82811115611b9f578251825591602001919060010190611b84565b50611bab929150611be5565b5090565b508054611bbb90611fbb565b6000825580601f10611bcb575050565b601f016020900490600052602060002090810190610af591905b5b80821115611bab5760008155600101611be6565b600067ffffffffffffffff80841115611c1557611c1561200c565b604051601f8501601f19908116603f01168101908282118183101715611c3d57611c3d61200c565b81604052809350858152868686011115611c5657600080fd5b858560208301376000602087830101525050509392505050565b80356001600160a01b0381168114611c8757600080fd5b919050565b600060208284031215611c9e57600080fd5b6116ca82611c70565b60008060408385031215611cba57600080fd5b611cc383611c70565b9150611cd160208401611c70565b90509250929050565b600080600060608486031215611cef57600080fd5b611cf884611c70565b9250611d0660208501611c70565b9150604084013590509250925092565b60008060008060808587031215611d2c57600080fd5b611d3585611c70565b9350611d4360208601611c70565b925060408501359150606085013567ffffffffffffffff811115611d6657600080fd5b8501601f81018713611d7757600080fd5b611d8687823560208401611bfa565b91505092959194509250565b60008060408385031215611da557600080fd5b611dae83611c70565b915060208301358015158114611dc357600080fd5b809150509250929050565b60008060408385031215611de157600080fd5b611dea83611c70565b946020939093013593505050565b600080600060608486031215611e0d57600080fd5b611e1684611c70565b925060208401359150604084013567ffffffffffffffff811115611e3957600080fd5b8401601f81018613611e4a57600080fd5b611e5986823560208401611bfa565b9150509250925092565b600060208284031215611e7557600080fd5b81356116ca81612022565b600060208284031215611e9257600080fd5b81516116ca81612022565b600060208284031215611eaf57600080fd5b5035919050565b60008151808452611ece816020860160208601611f8f565b601f01601f19169290920160200192915050565b60008351611ef4818460208801611f8f565b835190830190611f08818360208801611f8f565b01949350505050565b60006001600160a01b03808716835280861660208401525083604083015260806060830152611f436080830184611eb6565b9695505050505050565b6020815260006116ca6020830184611eb6565b60008219821115611f7357611f73611ff6565b500190565b600082821015611f8a57611f8a611ff6565b500390565b60005b83811015611faa578181015183820152602001611f92565b8381111561094e5750506000910152565b600181811c90821680611fcf57607f821691505b60208210811415611ff057634e487b7160e01b600052602260045260246000fd5b50919050565b634e487b7160e01b600052601160045260246000fd5b634e487b7160e01b600052604160045260246000fd5b6001600160e01b031981168114610af557600080fdfea264697066735822122015b8176d002baeec23b323676f9fbf1731650b9d9f7d365a15c8dec2e103623464736f6c63430008070033a2646970667358221220190e13f497c13f8ddb140a340f605704e0e3fa8c9210a0de2951f144daabaabd64736f6c63430008070033",
  "linkReferences": {},
  "deployedLinkReferences": {}
}